{
  "_format": "hh-sol-artifact-1",
  "contractName": "Staking",
  "sourceName": "contracts/Staking.sol",
  "abi": [
    {
      "inputs": [
        {
          "internalType": "address",
          "name": "_parentNftAddress",
          "type": "address"
        }
      ],
      "stateMutability": "nonpayable",
      "type": "constructor"
    },
    {
      "anonymous": false,
      "inputs": [
        {
          "indexed": false,
          "internalType": "uint256",
          "name": "id",
          "type": "uint256"
        },
        {
          "indexed": false,
          "internalType": "uint256",
          "name": "tokenId",
          "type": "uint256"
        },
        {
          "indexed": false,
          "internalType": "address",
          "name": "staker",
          "type": "address"
        },
        {
          "indexed": false,
          "internalType": "uint256",
          "name": "timestamp",
          "type": "uint256"
        }
      ],
      "name": "AssetStaked",
      "type": "event"
    },
    {
      "anonymous": false,
      "inputs": [
        {
          "indexed": false,
          "internalType": "uint256",
          "name": "id",
          "type": "uint256"
        },
        {
          "indexed": false,
          "internalType": "uint256",
          "name": "tokenId",
          "type": "uint256"
        },
        {
          "indexed": false,
          "internalType": "address",
          "name": "staker",
          "type": "address"
        },
        {
          "indexed": false,
          "internalType": "uint256",
          "name": "timestamp",
          "type": "uint256"
        }
      ],
      "name": "AssetUnstaked",
      "type": "event"
    },
    {
      "anonymous": false,
      "inputs": [
        {
          "indexed": true,
          "internalType": "address",
          "name": "previousOwner",
          "type": "address"
        },
        {
          "indexed": true,
          "internalType": "address",
          "name": "newOwner",
          "type": "address"
        }
      ],
      "name": "OwnershipTransferred",
      "type": "event"
    },
    {
      "inputs": [
        {
          "internalType": "address",
          "name": "operator",
          "type": "address"
        },
        {
          "internalType": "address",
          "name": "from",
          "type": "address"
        },
        {
          "internalType": "uint256",
          "name": "tokenId",
          "type": "uint256"
        },
        {
          "internalType": "bytes",
          "name": "data",
          "type": "bytes"
        }
      ],
      "name": "onERC721Received",
      "outputs": [
        {
          "internalType": "bytes4",
          "name": "",
          "type": "bytes4"
        }
      ],
      "stateMutability": "nonpayable",
      "type": "function"
    },
    {
      "inputs": [],
      "name": "owner",
      "outputs": [
        {
          "internalType": "address",
          "name": "",
          "type": "address"
        }
      ],
      "stateMutability": "view",
      "type": "function"
    },
    {
      "inputs": [],
      "name": "parentNft",
      "outputs": [
        {
          "internalType": "contract IERC721",
          "name": "",
          "type": "address"
        }
      ],
      "stateMutability": "view",
      "type": "function"
    },
    {
      "inputs": [],
      "name": "renounceOwnership",
      "outputs": [],
      "stateMutability": "nonpayable",
      "type": "function"
    },
    {
      "inputs": [
        {
          "internalType": "uint256",
          "name": "_tokenId",
          "type": "uint256"
        }
      ],
      "name": "stakeAsset",
      "outputs": [],
      "stateMutability": "nonpayable",
      "type": "function"
    },
    {
      "inputs": [
        {
          "internalType": "uint256",
          "name": "",
          "type": "uint256"
        }
      ],
      "name": "stakeByTokenId",
      "outputs": [
        {
          "internalType": "uint256",
          "name": "id",
          "type": "uint256"
        },
        {
          "internalType": "uint256",
          "name": "tokenId",
          "type": "uint256"
        },
        {
          "internalType": "address",
          "name": "staker",
          "type": "address"
        },
        {
          "internalType": "uint256",
          "name": "timestamp",
          "type": "uint256"
        }
      ],
      "stateMutability": "view",
      "type": "function"
    },
    {
      "inputs": [
        {
          "internalType": "address",
          "name": "newOwner",
          "type": "address"
        }
      ],
      "name": "transferOwnership",
      "outputs": [],
      "stateMutability": "nonpayable",
      "type": "function"
    },
    {
      "inputs": [
        {
          "internalType": "uint256",
          "name": "_tokenId",
          "type": "uint256"
        }
      ],
      "name": "unstakeAsset",
      "outputs": [],
      "stateMutability": "nonpayable",
      "type": "function"
    }
  ],
  "bytecode": "0x608060405234801561001057600080fd5b506040516107be3803806107be83398101604081905261002f916100ad565b6100383361005d565b600280546001600160a01b0319166001600160a01b03929092169190911790556100dd565b600080546001600160a01b038381166001600160a01b0319831681178455604051919092169283917f8be0079c531659141344cd1fd0a4f28419497f9722a3daafe3b4186f6b6457e09190a35050565b6000602082840312156100bf57600080fd5b81516001600160a01b03811681146100d657600080fd5b9392505050565b6106d2806100ec6000396000f3fe608060405234801561001057600080fd5b50600436106100885760003560e01c8063c90e6b511161005b578063c90e6b5114610100578063e629b6c314610113578063f07b014a14610182578063f2fde38b1461019557600080fd5b8063150b7a021461008d578063715018a6146100be5780638da5cb5b146100c85780639b8ebc28146100ed575b600080fd5b6100a061009b3660046105c6565b6101a8565b6040516001600160e01b031990911681526020015b60405180910390f35b6100c66101de565b005b6000546001600160a01b03165b6040516001600160a01b0390911681526020016100b5565b6002546100d5906001600160a01b031681565b6100c661010e366004610661565b610249565b610153610121366004610661565b600360208190526000918252604090912080546001820154600283015492909301549092916001600160a01b03169084565b6040516100b5949392919093845260208401929092526001600160a01b03166040830152606082015260800190565b6100c6610190366004610661565b610365565b6100c66101a336600461067a565b61048f565b60006101b384610365565b507fb4b5fc422e35d2b1f54460016dbca60380c35eef74ead095064eb7e87579219795945050505050565b6000546001600160a01b0316331461023d5760405162461bcd60e51b815260206004820181905260248201527f4f776e61626c653a2063616c6c6572206973206e6f7420746865206f776e657260448201526064015b60405180910390fd5b610247600061055a565b565b6000818152600360205260409020600201546001600160a01b0316331461026f57600080fd5b60008181526003602052604090819020546002549151632142170760e11b81523060048201523360248201526044810184905290916001600160a01b0316906342842e0e90606401600060405180830381600087803b1580156102d157600080fd5b505af11580156102e5573d6000803e3d6000fd5b5050506000838152600360208181526040808420848155600181018590556002810180546001600160a01b031916905590920192909255805184815291820185905233908201524260608201527f84bd57aba4cc2d965e60af4e1d6e02814d1dccd0ad7f9f129486e344d2bf355c91506080015b60405180910390a15050565b610373600180546001019055565b600061037e60015490565b60408051608081018252828152602080820186815233838501818152426060860190815260008a8152600395869052879020955186559251600186015551600280860180546001600160a01b0319166001600160a01b0393841617905592519490930193909355549251632142170760e11b81526004810192909252306024830152604482018690529293509116906342842e0e90606401600060405180830381600087803b15801561043057600080fd5b505af1158015610444573d6000803e3d6000fd5b5050604080518481526020810186905233918101919091524260608201527f0e2f1887f316d3ffd1b6132748d3fa16fedcd99fbadb86f6a746f7c81340297e92506080019050610359565b6000546001600160a01b031633146104e95760405162461bcd60e51b815260206004820181905260248201527f4f776e61626c653a2063616c6c6572206973206e6f7420746865206f776e65726044820152606401610234565b6001600160a01b03811661054e5760405162461bcd60e51b815260206004820152602660248201527f4f776e61626c653a206e6577206f776e657220697320746865207a65726f206160448201526564647265737360d01b6064820152608401610234565b6105578161055a565b50565b600080546001600160a01b038381166001600160a01b0319831681178455604051919092169283917f8be0079c531659141344cd1fd0a4f28419497f9722a3daafe3b4186f6b6457e09190a35050565b80356001600160a01b03811681146105c157600080fd5b919050565b6000806000806000608086880312156105de57600080fd5b6105e7866105aa565b94506105f5602087016105aa565b935060408601359250606086013567ffffffffffffffff8082111561061957600080fd5b818801915088601f83011261062d57600080fd5b81358181111561063c57600080fd5b89602082850101111561064e57600080fd5b9699959850939650602001949392505050565b60006020828403121561067357600080fd5b5035919050565b60006020828403121561068c57600080fd5b610695826105aa565b939250505056fea2646970667358221220631028e5a4b2b0756d5d31cdfebb7a4b70bd1762f1cc4f08cff0b326eaa0e6d064736f6c634300080b0033",
  "linkReferences": {},
  "deployedLinkReferences": {}
}